{
  "contractName": "Election",
  "abi": [
    {
      "constant": true,
      "inputs": [],
      "name": "candidatesCount",
      "outputs": [
        {
          "name": "",
          "type": "uint256"
        }
      ],
      "payable": false,
      "stateMutability": "view",
      "type": "function",
      "signature": "0x2d35a8a2"
    },
    {
      "constant": true,
      "inputs": [
        {
          "name": "",
          "type": "uint256"
        }
      ],
      "name": "candidates",
      "outputs": [
        {
          "name": "uid",
          "type": "uint256"
        },
        {
          "name": "name",
          "type": "string"
        },
        {
          "name": "voteCount",
          "type": "uint256"
        }
      ],
      "payable": false,
      "stateMutability": "view",
      "type": "function",
      "signature": "0x3477ee2e"
    },
    {
      "inputs": [],
      "payable": false,
      "stateMutability": "nonpayable",
      "type": "constructor",
      "signature": "constructor"
    }
  ],
  "bytecode": "0x608060405234801561001057600080fd5b5060408051808201909152600781527f43616c6f6e203100000000000000000000000000000000000000000000000000602082015261005790640100000000610174810204565b60408051808201909152600781527f43616c6f6e203200000000000000000000000000000000000000000000000000602082015261009d90640100000000610174810204565b60408051808201909152600781527f43616c6f6e20330000000000000000000000000000000000000000000000000060208201526100e390640100000000610174810204565b60408051808201909152600781527f43616c6f6e203400000000000000000000000000000000000000000000000000602082015261012990640100000000610174810204565b60408051808201909152600781527f43616c6f6e203500000000000000000000000000000000000000000000000000602082015261016f90640100000000610174810204565b61026d565b60008054600190810180835560408051606081018252828152602080820187815282840187905293865284815291909420845181559151805192936101c1939085019291909101906101d2565b506040820151816002015590505050565b828054600181600116156101000203166002900490600052602060002090601f016020900481019282601f1061021357805160ff1916838001178555610240565b82800160010185558215610240579182015b82811115610240578251825591602001919060010190610225565b5061024c929150610250565b5090565b61026a91905b8082111561024c5760008155600101610256565b90565b6102058061027c6000396000f3fe60806040526004361061004b5763ffffffff7c01000000000000000000000000000000000000000000000000000000006000350416632d35a8a281146100505780633477ee2e14610077575b600080fd5b34801561005c57600080fd5b50610065610127565b60408051918252519081900360200190f35b34801561008357600080fd5b506100a16004803603602081101561009a57600080fd5b503561012d565b6040518084815260200180602001838152602001828103825284818151815260200191508051906020019080838360005b838110156100ea5781810151838201526020016100d2565b50505050905090810190601f1680156101175780820380516001836020036101000a031916815260200191505b5094505050505060405180910390f35b60005481565b600160208181526000928352604092839020805481840180548651600296821615610100026000190190911695909504601f810185900485028601850190965285855290949193929091908301828280156101c95780601f1061019e576101008083540402835291602001916101c9565b820191906000526020600020905b8154815290600101906020018083116101ac57829003601f168201915b505050505090806002015490508356fea165627a7a72305820902d30551cc70faee0b6083b56a1c2826bb385e5f1b1e7fb16a18ca31866e3a00029",
  "source": "pragma solidity >=0.4.24;\n\n\ncontract Election {\n\n    //model\n    struct Candidate {\n        uint uid;\n        string name;\n        uint voteCount;\n        //TODO: ADD AVATAR IMAGE USING IPFS\n    }\n\n    uint public candidatesCount;\n\n    mapping(uint => Candidate) public candidates;\n\n    constructor () public {\n        //TODO: READ EXTERNAL DATA TO INITIAL DATA\n        addCandidate(\"Calon 1\");\n        addCandidate(\"Calon 2\");\n        addCandidate(\"Calon 3\");\n        addCandidate(\"Calon 4\");\n        addCandidate(\"Calon 5\");\n    }\n    function addCandidate (string memory _name) private {\n        candidatesCount++;\n        candidates[candidatesCount] = Candidate(candidatesCount, _name, 0);\n    }\n}",
  "sourcePath": "/Users/rekeningku/Documents/Projects/Repositories/pemilihan-osis-smart-contract/contracts/Election.sol",
  "compiler": {
    "name": "solc",
    "version": "0.5.0+commit.1d4f565a.Emscripten.clang"
  },
  "schemaVersion": "3.0.2",
  "updatedAt": "2019-02-26T05:49:10.482Z",
  "devdoc": {
    "methods": {}
  },
  "userdoc": {
    "methods": {}
  }
}