{
  "contractName": "Election",
  "abi": [
    {
      "constant": true,
      "inputs": [],
      "name": "candidatesCount",
      "outputs": [
        {
          "name": "",
          "type": "uint256"
        }
      ],
      "payable": false,
      "stateMutability": "view",
      "type": "function",
      "signature": "0x2d35a8a2"
    },
    {
      "constant": true,
      "inputs": [
        {
          "name": "",
          "type": "uint256"
        }
      ],
      "name": "candidates",
      "outputs": [
        {
          "name": "uid",
          "type": "uint256"
        },
        {
          "name": "name",
          "type": "string"
        },
        {
          "name": "voteCount",
          "type": "uint256"
        }
      ],
      "payable": false,
      "stateMutability": "view",
      "type": "function",
      "signature": "0x3477ee2e"
    },
    {
      "constant": true,
      "inputs": [],
      "name": "votersCount",
      "outputs": [
        {
          "name": "",
          "type": "uint256"
        }
      ],
      "payable": false,
      "stateMutability": "view",
      "type": "function",
      "signature": "0x98c07938"
    },
    {
      "constant": true,
      "inputs": [
        {
          "name": "",
          "type": "address"
        }
      ],
      "name": "voters",
      "outputs": [
        {
          "name": "uid",
          "type": "uint256"
        },
        {
          "name": "name",
          "type": "string"
        },
        {
          "name": "balance",
          "type": "uint256"
        }
      ],
      "payable": false,
      "stateMutability": "view",
      "type": "function",
      "signature": "0xa3ec138d"
    },
    {
      "inputs": [],
      "payable": false,
      "stateMutability": "nonpayable",
      "type": "constructor",
      "signature": "constructor"
    },
    {
      "anonymous": false,
      "inputs": [
        {
          "indexed": false,
          "name": "candidateId",
          "type": "uint256"
        },
        {
          "indexed": false,
          "name": "voteCount",
          "type": "uint256"
        }
      ],
      "name": "VoteEvent",
      "type": "event",
      "signature": "0xd193833848b675d858c4a3354369c7ff9a3cf48d9f9fbbf0882944b88ff68591"
    },
    {
      "constant": false,
      "inputs": [
        {
          "name": "_name",
          "type": "string"
        }
      ],
      "name": "registerVoter",
      "outputs": [
        {
          "name": "",
          "type": "address"
        }
      ],
      "payable": false,
      "stateMutability": "nonpayable",
      "type": "function",
      "signature": "0x6428a486"
    },
    {
      "constant": false,
      "inputs": [
        {
          "name": "from",
          "type": "address"
        },
        {
          "name": "candidateId",
          "type": "uint256"
        }
      ],
      "name": "vote",
      "outputs": [],
      "payable": false,
      "stateMutability": "nonpayable",
      "type": "function",
      "signature": "0x5f74bbde"
    }
  ],
  "bytecode": "0x608060405234801561001057600080fd5b5060408051808201909152600781527f43616c6f6e203100000000000000000000000000000000000000000000000000602082015261005790640100000000610174810204565b60408051808201909152600781527f43616c6f6e203200000000000000000000000000000000000000000000000000602082015261009d90640100000000610174810204565b60408051808201909152600781527f43616c6f6e20330000000000000000000000000000000000000000000000000060208201526100e390640100000000610174810204565b60408051808201909152600781527f43616c6f6e203400000000000000000000000000000000000000000000000000602082015261012990640100000000610174810204565b60408051808201909152600781527f43616c6f6e203500000000000000000000000000000000000000000000000000602082015261016f90640100000000610174810204565b61026e565b6000805460019081018083556040805160608101825282815260208082018781528284018790529386526002815291909420845181559151805192936101c2939085019291909101906101d3565b506040820151816002015590505050565b828054600181600116156101000203166002900490600052602060002090601f016020900481019282601f1061021457805160ff1916838001178555610241565b82800160010185558215610241579182015b82811115610241578251825591602001919060010190610226565b5061024d929150610251565b5090565b61026b91905b8082111561024d5760008155600101610257565b90565b6107868061027d6000396000f3fe6080604052600436106100775763ffffffff7c01000000000000000000000000000000000000000000000000000000006000350416632d35a8a2811461007c5780633477ee2e146100a35780635f74bbde146101535780636428a4861461019b57806398c0793814610277578063a3ec138d1461028c575b600080fd5b34801561008857600080fd5b506100916102cc565b60408051918252519081900360200190f35b3480156100af57600080fd5b506100cd600480360360208110156100c657600080fd5b50356102d2565b6040518084815260200180602001838152602001828103825284818151815260200191508051906020019080838360005b838110156101165781810151838201526020016100fe565b50505050905090810190601f1680156101435780820380516001836020036101000a031916815260200191505b5094505050505060405180910390f35b34801561015f57600080fd5b506101996004803603604081101561017657600080fd5b5073ffffffffffffffffffffffffffffffffffffffff813516906020013561037d565b005b3480156101a757600080fd5b5061024e600480360360208110156101be57600080fd5b8101906020810181356401000000008111156101d957600080fd5b8201836020820111156101eb57600080fd5b8035906020019184600183028401116401000000008311171561020d57600080fd5b91908080601f0160208091040260200160405190810160405280939291908181526020018383808284376000920191909152509295506105c8945050505050565b6040805173ffffffffffffffffffffffffffffffffffffffff9092168252519081900360200190f35b34801561028357600080fd5b50610091610647565b34801561029857600080fd5b506100cd600480360360208110156102af57600080fd5b503573ffffffffffffffffffffffffffffffffffffffff1661064d565b60005481565b60026020818152600092835260409283902080546001808301805487519281161561010002600019011695909504601f810185900485028201850190965285815290949193909290919083018282801561036d5780601f106103425761010080835404028352916020019161036d565b820191906000526020600020905b81548152906001019060200180831161035057829003601f168201915b5050505050908060020154905083565b73ffffffffffffffffffffffffffffffffffffffff8216600090815260036020526040902054151561041057604080517f08c379a000000000000000000000000000000000000000000000000000000000815260206004820152601660248201527f416e64612062656c756d20726567697374726173692e00000000000000000000604482015290519081900360640190fd5b73ffffffffffffffffffffffffffffffffffffffff8216600090815260036020526040812060020154116104cb57604080517f08c379a000000000000000000000000000000000000000000000000000000000815260206004820152603960248201527f5472616e73616b736920416e646120676167616c2e20416e646120737564616860448201527f207065726e6168206d656c616b756b616e20766f74696e672e00000000000000606482015290519081900360840190fd5b600081815260026020526040902054151561054757604080517f08c379a000000000000000000000000000000000000000000000000000000000815260206004820152601660248201527f43616e64696461746520746964616b2076616c69642e00000000000000000000604482015290519081900360640190fd5b600081815260026020818152604080842083018054600101815573ffffffffffffffffffffffffffffffffffffffff8716855260038352818520840185905593859052918152915481518481529283015280517fd193833848b675d858c4a3354369c7ff9a3cf48d9f9fbbf0882944b88ff685919281900390910190a15050565b600180548101905533600090815260036020526040812054156105ea57600080fd5b604080516060810182526001805482526020808301868152838501839052336000908152600383529490942083518155935180519394936106329385019291909101906106bf565b50604091909101516002909101555033919050565b60015481565b6003602090815260009182526040918290208054600180830180548651600293821615610100026000190190911692909204601f81018690048602830186019096528582529194929390929083018282801561036d5780601f106103425761010080835404028352916020019161036d565b828054600181600116156101000203166002900490600052602060002090601f016020900481019282601f1061070057805160ff191683800117855561072d565b8280016001018555821561072d579182015b8281111561072d578251825591602001919060010190610712565b5061073992915061073d565b5090565b61075791905b808211156107395760008155600101610743565b9056fea165627a7a72305820956b11ec9e2e2521f462dbfcde37a41fce71794358e1d0a8f6d406a472cd0fff0029",
  "source": "pragma solidity >=0.4.24;\n\n\ncontract Election {\n\n    //model\n    struct Candidate {\n        uint uid;\n        string name;\n        uint voteCount;\n        //TODO: ADD AVATAR IMAGE USING IPFS\n    }\n\n    struct Voter{\n        uint uid;\n        string name;\n        uint balance;\n    }\n\n    uint public candidatesCount;\n    uint public votersCount;\n\n    mapping(uint => Candidate) public candidates;\n    mapping(address => Voter) public voters;\n\n    event VoteEvent(uint candidateId, uint voteCount);\n\n    constructor () public {\n        addCandidate(\"Calon 1\");\n        addCandidate(\"Calon 2\");\n        addCandidate(\"Calon 3\");\n        addCandidate(\"Calon 4\");\n        addCandidate(\"Calon 5\");\n    }\n    function addCandidate (string memory _name) private {\n        candidatesCount++;\n        candidates[candidatesCount] = Candidate(candidatesCount, _name, 0);\n    }\n\n    function registerVoter(string memory _name) public returns (address){\n        votersCount++;\n        if(voters[msg.sender].uid != 0){\n            revert();\n        }\n        voters[msg.sender] = Voter(votersCount, _name, 1);\n        return msg.sender;\n    }\n\n    function vote(address from, uint candidateId) public {\n        require(voters[from].uid != 0, \"Anda belum registrasi.\");\n        require(voters[from].balance > 0, \"Transaksi Anda gagal. Anda sudah pernah melakukan voting.\");\n        require(candidates[candidateId].uid != 0, \"Candidate tidak valid.\");\n        candidates[candidateId].voteCount++;\n        voters[from].balance = 0;\n        emit VoteEvent(candidateId, candidates[candidateId].voteCount);\n    }\n}",
  "sourcePath": "/Users/rekeningku/Documents/Projects/Repositories/pemilihan-osis-smart-contract/contracts/Election.sol",
  "compiler": {
    "name": "solc",
    "version": "0.5.0+commit.1d4f565a.Emscripten.clang"
  },
  "schemaVersion": "3.0.2",
  "updatedAt": "2019-03-03T15:53:46.850Z",
  "devdoc": {
    "methods": {}
  },
  "userdoc": {
    "methods": {}
  }
}